:0400000080319A2889
:10000800803120007F08F100111C9728803097006C
:100018005B085C04031D32280130D5070030D63D4B
:100028000030D73D0030D83DD81B32285808031D72
:1000380026285708031D2628103055022730563B1E
:10004800031C32280030D8000030D7000030D6001A
:100058000030D5000430DF000030E00005305F06D6
:10006800600403195E280130E1070030E23D6208B0
:10007800803AF00080307002031D4428B4306102D9
:10008800031C5E28B4302000E1000030E2005F0865
:100098006004031954280430DF000030E0005E28B3
:1000A8005B085C0403195E280430DF000030E000C0
:1000B800DB01DC0101302000E3070030E43D640887
:1000C800803AF00080307002031D6C283C306302D7
:1000D800031C95282000E301E4010130DD0700300E
:1000E800DE3D5E08803AF00080307002031D7E28F5
:1000F8003C305D02031C95282000DD01DE01013043
:10010800D9070030DA3D5A08803AF0008030700292
:10011800031D902818305902031C95282000D90186
:10012800DA01200011107108FF00090080319C28B5
:100138005530840000308500103087318C2780319D
:100148006A308400873085003F30860000308700A1
:1001580016308731922720008031B22887312A272C
:10016800803184312F248031803020009700003086
:1001780096000B1711108B172100111420008D18F1
:100188002B296208803AB00080303002031DCE2847
:10019800B4306102031CD628043020005F066004D6
:1001A80003191B2901302000DF070030E03D6008FB
:1001B800803AB00080303002031DE42806305F0228
:1001C800031CE9282000DF01E0012000B301B4018D
:1001D8003408803AB00080303002031DF5280A3018
:1001E800330203181B2920006008F3005F08F2009F
:1001F8000A30F4000030F5000A30F6000030F7004D
:100208000A30F8000030F90086313026803101309C
:100218002000B3070030B43D3408803AB000803085
:100228003002031D19290A303302031CF728200065
:10023800E101E2010430B2000C30B1003530B00009
:10024800B00B2429B10B2429B20B24290032200039
:100258000D181E2C6208803AB00080303002031D51
:100268003729B4306102031CE829043020005F06F6
:100278006004031DE829FC295B085C040319842930
:10028800DB01DC010030D8000030D7000030D60098
:100298000030D500B501B6013608803AB00080308C
:1002A8003002031D59290A30350203187A29003013
:1002B800F200F3000030F400F5000030F600F7001B
:1002C8000030F800F90086313026803101302000F6
:1002D800B5070030B63D3608803AB00080303002AD
:1002E800031D78290A303502031C5B2900302000E1
:1002F800D8000030D7000030D6000030D500FC29E7
:100308000130DB000030DC00FC296408803AB000D2
:1003180080303002031D92291E306302031CBC2961
:100328002000E301E4010130DD070030DE3D5E0816
:10033800803AB00080303002031DA4293C305D02B1
:10034800031CBF292000DD01DE010130D907003080
:10035800DA3D5A08803AB00080303002031DB629D1
:1003680018305902031CBF292000D901DA01BF291E
:100378002000E301E401A03020009700FC290130AF
:10038800DD070030DE3D5E08803AB0008030300284
:10039800031DD0293C305D02031CFC292000DD012F
:1003A800DE010130D9070030DA3D5A08803AB00042
:1003B80080303002031DE22918305902031CFC2941
:1003C8002000D901DA01FC2920006008003A03194D
:1003D800EE29FC295F08003A03194029013A03195C
:1003E8008929033A0319C329013A0319D529FC2994
:1003F8002000E101E2010430B2000C30B1003530D8
:10040800B000B00B052AB10B052AB20B052A003241
:100418001E2C00302000A9000030A8000030A700E2
:100428000A30A6005808AD005708AC005608AB00C3
:100438005508AA008531C225803120002708BE0052
:100448002608BD000030A9000030A8000030A70031
:100458000A30A6000030F5000030F4000030F30048
:100468000A30F2005808F9005708F8005608F70053
:100478005508F60085314025803175082000AD000B
:100488007408AC007308AB007208AA008531C22555
:10049800803120002708BC002608BB000030A900D6
:1004A8000030A8000030A7000A30A6000030F50090
:1004B8000030F4000030F3006430F2005808F9000E
:1004C8005708F8005608F7005508F600853140250A
:1004D800803175082000AD007408AC007308AB00CB
:1004E8007208AA008531C225803120002708BA0089
:1004F8002608B9000030A9000030A8000030A70085
:100508000A30A6000030F5000030F4000330F30094
:10051800E830F2005808F9005708F8005608F700C4
:100528005508F60085314025803175082000AD005A
:100538007408AC007308AB007208AA008531C225A4
:10054800803120002708B8002608B7003808F300D3
:100558003708F2003A08F5003908F4003C08F700BB
:100568003B08F6003E08F9003D08F80086313026C1
:100578008031C2280A30F2000030F30020006408FD
:10058800F5006308F4008631E52680317308200001
:10059800BE007208BD000A30F2000030F3006408A3
:1005A800F5006308F4008631942680317308200032
:1005B800BC007208BB000A30F2000030F3005E088D
:1005C800F5005D08F4008631E526803173082000C7
:1005D800BA007208B9000A30F2000030F3005E0871
:1005E800F5005D08F40086319426803173082000F8
:1005F800B8007208B7003808F3003708F2003A0864
:10060800F5003908F4003C08F7003B08F6003E08FE
:10061800F9003D08F800863130268031C2280A30BA
:10062800F2000030F30020005E08F5005D08F400D9
:100638008631E526803173082000BE007208BD00AF
:100648000A30F2000030F3005E08F5005D08F4009F
:1006580086319426803173082000BC007208BB00E4
:100668000A30F2000030F3005A08F5005908F40087
:100678008631E526803173082000BA007208B90077
:100688000A30F2000030F3005A08F5005908F40067
:1006980086319426803173082000B8007208B700AC
:1006A8003808F3003708F2003A08F5003908F40072
:1006B8003C08F7003B08F6003E08F9003D08F80042
:1006C800863130268031C22820006208803AB00086
:1006D80080303002031D722BB43061020318C22827
:1006E8000A30F2000030F30020005E08F5005D08D3
:1006F800F4008631E526803173082000BE007208B8
:10070800BD000A30F2000030F3005E08F5005D0815
:10071800F40086319426803173082000BC007208EA
:10072800BB000A30F2000030F3005A08F5005908FF
:10073800F4008631E526803173082000BA0072087B
:10074800B9000A30F2000030F3005A08F5005908E1
:10075800F40086319426803173082000B8007208AE
:10076800B7003808F3003708F2003A08F5003908EE
:10077800F4003C08F7003B08F6003E08F9003D0885
:10078800F800863130268031C2280A30F200003065
:10079800F30020005E08F5005D08F4008631E526C8
:1007A800803173082000BE007208BD000A30F200D4
:1007B8000030F3005E08F5005D08F40086319426E9
:1007C800803173082000BC007208BB000A30F200B8
:1007D8000030F3005A08F5005908F4008631E52680
:1007E800803173082000BA007208B9000A30F2009C
:1007F8000030F3005A08F5005908F40086319426B1
:10080800803173082000B8007208B7003808F30078
:100818003708F2003A08F5003908F4003C08F700F8
:100828003B08F6003E08F9003D08F80086313026FE
:100838008031C22820006008003A0319242CC228FD
:100848005F088400063004020318C2288731043583
:10085800803E8200C2282000AD01AE012E08803AF9
:10086800A20080302202031D3B2C0A302D020318FF
:1008780008002000A501A6012608803AA2008030C1
:100888002202031D492C033025020318792C20006D
:100898002E08F3002D08F2000A30F4000030F500AD
:1008A8000A30F6000030F7000A30F8000030F9008E
:1008B8008631302684310D302000A300FB30A200A1
:1008C800A20B642CA30B642C003201302000A50776
:1008D8000030A63D2608803AA20080302202031D7F
:1008E800772C03302502031C4B2C2000A701A801FC
:1008F8002808803AA20080302202031D852C03308C
:1009080027020318B52C0A30F2000030F30020004B
:100918002E08F5002D08F4000A30F6000030F70024
:100928000A30F8000030F9008631302684310D3065
:100938002000A300FB30A200A20BA02CA30BA02C2C
:10094800003201302000A7070030A83D2808803A6F
:10095800A20080302202031DB32C03302702031C9F
:10096800872C2000A901AA012A08803AA200803019
:100978002202031DC12C033029020318F12C0A306E
:10098800F2000030F3000A30F4000030F5002000D7
:100998002E08F7002D08F6000A30F8000030F9009C
:1009A8008631302684310D302000A300FB30A200B0
:1009B800A20BDC2CA30BDC2C003201302000A90791
:1009C8000030AA3D2A08803AA20080302202031D86
:1009D800EF2C03302902031CC32C2000AB01AC010F
:1009E8002C08803AA20080302202031DFD2C03301F
:1009F8002B0203182D2D0A30F2000030F3000A30C4
:100A0800F4000030F5000A30F6000030F70020004E
:100A18002E08F9002D08F8008631302684310D3073
:100A28002000A300FB30A200A20B182DA30B182D49
:100A3800003201302000AB070030AC3D2C08803A72
:100A4800A20080302202031D2B2D03302B02031C31
:100A5800FF2C03302000A4000830A3007830A20047
:100A6800A20B342DA30B342DA40B342D0130200000
:100A7800AD070030AE3D322C2000A101F51F512DED
:100A8800F209F309F409F509F20A0319F30A03193B
:100A9800F40A0319F50AA101A10AF91F622DF60942
:100AA800F709F809F909F60A0319F70A0319F80A00
:100AB8000319F90A0130FA007A08A1060030A500E6
:100AC8000030A4000030A3000030A20075087404B0
:100AD800730472040319AB2DA001A00AF51B802D25
:100AE8000130F235F30DF40DF50D890B752D01303C
:100AF800FA007A08A007722D0130A235A30DA40DC3
:100B0800A50D890B812D75087902031D952D740893
:100B18007802031D952D73087702031D952D720821
:100B28007602031CA02D7208F6027308F73B7408BE
:100B3800F83B7508F93B22140130F536F40CF30C38
:100B4800F20C890BA12D0130A002031D802D210874
:100B58000319B92DA209A309A409A509A20A031911
:100B6800A30A0319A40A0319A50A2508F5002408ED
:100B7800F4002308F3002208F20008002000AF0167
:100B8800AD1FD32DAA09AB09AC09AD09AA0A0319EF
:100B9800AB0A0319AC0A0319AD0AAF01AF0AA91FC2
:100BA800E02DA609A709A809A909A60A0319A70AF1
:100BB8000319A80A0319A90A2908280427042604DE
:100BC8000319192EAE01AE0AA91BF62D0130A63560
:100BD800A70DA80DA90D890BEB2D0130FB007B0893
:100BE800AE07E82D29082D02031D042E28082C0223
:100BF800031D042E27082B02031D042E26082A0293
:100C0800031C0E2E2608AA022708AB3B2808AC3B7B
:100C18002908AD3B0130A936A80CA70CA60C890BF6
:100C28000F2E0130AE02031DF62D2F080319272EB3
:100C3800AA09AB09AC09AD09AA0A0319AB0A031939
:100C4800AC0A0319AD0A2D08A9002C08A8002B0826
:100C5800A7002A08A60008002000A001A101210879
:100C6800803AFA0080307A02031D3C2E03302002BD
:100C78000318080072353F3E8600870101082000EE
:100C88008C00FB308D000D30FB00FB30FA00FA0BB6
:100C98004B2EFB0B4B2E003274353F3E86008701EE
:100CA800010820008C00FF308D00F7308D000D30DA
:100CB800FB00FB30FA00FA0B5F2EFB0B5F2E0032B5
:100CC80076353F3E86008701010820008C00FF3002
:100CD8008D00DF308D000D30FB00FB30FA00FA0B81
:100CE800732EFB0B732E003278353F3E860087014A
:100CF800010820008C00FF308D00EF308D000D3092
:100D0800FB00FB30FA00FA0B872EFB0B872E003214
:100D1800FF3020008D000130A0070030A13D332EA8
:100D2800F801F31F9E2EF209F309F20A0319F30AD8
:100D3800F801F80AF51FA92EF409F509F40A0319B0
:100D4800F50A0130F6007608F806F901FA0172088A
:100D580073040319D82EF701F70AF31BBD2E0130CF
:100D6800F235F30D890BB42E0130F6007608F7073B
:100D7800B12E0130F935FA0D890BBE2E73087502B4
:100D8800031DC82E72087402031CCF2E7208F402C9
:100D98007308F53B79140130F336F20C890BD02E29
:100DA8000130F702031DBD2E78080319E02EF9095A
:100DB800FA09F90A0319FA0A7A08F3007908F2001D
:100DC8000800F801F51FEF2EF409F509F40A0319D4
:100DD800F50AF801F80AF31FF62EF209F309F20AE8
:100DE8000319F30A7208730403191D2FF701F70A90
:100DF800F31B082F0130F235F30D890BFF2E01305C
:100E0800F6007608F707FC2E73087502031D0E2FEF
:100E180072087402031C142F7208F4027308F53B5D
:100E28000130F336F20C890B152F0130F702031D40
:100E3800082F78080319252FF409F509F40A03196E
:100E4800F50A7508F3007408F200080089302000DC
:100E5800980023008C018D0121008C01C3308D0086
:100E680020008D01FF308C009E01803027009D00FE
:100E78009D179C010230F4000430F300BA30F200F0
:100E8800F20B442FF30B442FF40B442F0000723065
:100E980021009900FF3020008D00033024008D00D0
:100EA8002100951300302000D8000030D700003012
:100EB800D6000030D500D901DA01DD01DE01E301F9
:100EC800E401E101E201DF01E0010800DE34003461
:100ED80012340034D5340034973400341B340034D1
:100EE8008F340034CF3400341E340034DF340034FF
:100EF8009F3400340034003482310D2A8231BE2AF6
:100F08008331132B8331132B8331682B8331C92B06
:100F1800640080010131890B8D2F0034FE0012001E
:080F28001E00FE0B932F0034A4
:020000040001F9
:04000E00A4F9FFDF73
:00000001FF
